:020000040000FA
:100000000C9462000C948A000C948A000C948A0070
:100010000C948A000C948A000C948A000C948A0038
:100020000C948A000C948A000C948A000C9443036C
:100030000C948A000C948A000C948A000C948A0018
:100040000C94A1020C948A000C9411030C94EB0202
:100050000C948A000C948A000C948A000C948A00F8
:100060000C948A000C948A000000000024002700F1
:100070002A0000000000250028002B0000000000DE
:1000800023002600290004040404040404040202DA
:100090000202020203030303030301020408102007
:1000A0004080010204081020010204081020000012
:1000B0000008000201000003040700000000000027
:1000C0000000FF0311241FBECFEFD8E0DEBFCDBF7D
:1000D00011E0A0E0B1E0E2EEFBE002C005900D927D
:1000E000A431B107D9F721E0A4E1B1E001C01D922C
:1000F000A73EB207E1F710E0C2E6D0E004C02197C6
:10010000FE010E94E905C136D107C9F70E945C04CF
:100110000C94EF050C940000AF92BF92CF92DF9247
:10012000EF92FF920F931F93CF93DF936C017B01AC
:100130008B01040F151FEB015E01AE18BF08C0173D
:10014000D10759F06991D601ED91FC910190F081B0
:10015000E02DC6010995892B79F7C501DF91CF9173
:100160001F910F91FF90EF90DF90CF90BF90AF90D5
:100170000895FC01538D448D252F30E0842F90E0AD
:10018000821B930B541710F0CF9608950197089592
:10019000FC01918D828D981761F0A28DAE0FBF2F5B
:1001A000B11D5D968C91928D9F5F9F73928F90E0B1
:1001B00008958FEF9FEF0895FC01918D828D981720
:1001C00031F0828DE80FF11D858D90E008958FEF5D
:1001D0009FEF0895FC01918D228D892F90E0805C26
:1001E0009F4F821B91098F739927089582E291E0B6
:1001F0000E94EA0021E0892B09F420E0822F089573
:1002000080E090E0892B29F00E94F60081110C9487
:1002100000000895FC01A48DA80FB92FB11DA35AA9
:10022000BF4F2C91848D90E001968F739927848F16
:10023000A689B7892C93A089B1898C918370806439
:100240008C93938D848D981306C00288F389E02DDA
:1002500080818F7D80830895EF92FF920F931F938B
:10026000CF93DF93EC0181E0888F9B8D8C8D981369
:100270001AC0E889F989808185FF15C09FB7F89475
:10028000EE89FF896083E889F989808183708064C1
:1002900080839FBF81E090E0DF91CF911F910F910C
:1002A000FF90EF900895F62E0B8D10E00F5F1F4F1B
:1002B0000F731127E02E8C8D8E110CC00FB607FC2A
:1002C000FACFE889F989808185FFF5CFCE010E94B8
:1002D0000A01F1CFEB8DEC0FFD2FF11DE35AFF4F1B
:1002E000F0829FB7F8940B8FEA89FB898081806246
:1002F000CFCFCF93DF93EC01888D8823B9F0AA8903
:10030000BB89E889F9898C9185FD03C0808186FDD0
:100310000DC00FB607FCF7CF8C9185FFF2CF80811F
:1003200085FFEDCFCE010E940A01E9CFDF91CF9189
:100330000895833081F028F4813099F08230A9F05B
:1003400008958730A9F08830C9F08430B1F48091E5
:1003500080008F7D03C0809180008F778093800024
:10036000089584B58F7784BD089584B58F7DFBCFC4
:100370008091B0008F778093B00008958091B00095
:100380008F7DF9CFCF93DF93282F30E0F901E2552D
:10039000FF4F8491F901E656FF4FD491F901EA57D6
:1003A000FF4FC491CC23A1F081110E949901EC2F41
:1003B000F0E0EE0FFF1FE458FF4FA591B491EC91D0
:1003C000ED2381E090E009F480E0DF91CF91089582
:1003D00080E090E0FACF1F93CF93DF93282F30E097
:1003E000F901E255FF4F8491F901E656FF4FD49190
:1003F000F901EA57FF4FC491CC23A9F0162F8111C0
:100400000E949901EC2FF0E0EE0FFF1FEE58FF4F16
:10041000A591B4918FB7F894EC91111108C0D095C3
:10042000DE23DC938FBFDF91CF911F910895DE2BE8
:10043000F8CFCF93DF9390E0FC01E656FF4F249175
:100440008A579F4FFC0184918823D1F090E0880F58
:10045000991FFC01E859FF4FA591B491FC01EE589A
:10046000FF4FC591D49161110EC09FB7F8948C9144
:10047000E22FE0958E238C932881E223E8839FBFAF
:10048000DF91CF9108958FB7F894EC91E22BEC9324
:100490008FBFF6CF1F93CF93DF93D82FC62F172F81
:1004A00061E00E941902ED2FF0E0E255FF4FE49168
:1004B000E33059F158F4E130D9F0E23009F160E06D
:1004C0008D2FDF91CF911F910C94EB01E73049F113
:1004D000E83079F1E43099F7809180008062809370
:1004E00080008C2F912F90938B0080938A0004C002
:1004F00084B5806884BDC7BDDF91CF911F910895F9
:1005000084B5806284BDC8BDF7CF809180008068CB
:10051000809380008C2F912F909389008093880086
:10052000EBCF8091B00080688093B000C093B3009F
:10053000E3CF8091B00080628093B000C093B4009C
:10054000DBCF1F920F920FB60F9211242F933F9380
:100550008F939F93AF93BF9380911E0190911F0142
:10056000A0912001B091210130911D0123E0230FC2
:100570002D3758F50196A11DB11D20931D018093C3
:100580001E0190931F01A0932001B093210180913F
:10059000190190911A01A0911B01B0911C010196C3
:1005A000A11DB11D8093190190931A01A0931B0105
:1005B000B0931C01BF91AF919F918F913F912F916B
:1005C0000F900FBE0F901F90189526E8230F0296EC
:1005D000A11DB11DD2CF1F920F920FB60F92112401
:1005E0002F933F934F935F936F937F938F939F933B
:1005F000AF93BF93EF93FF9382E291E00E940A01D1
:10060000FF91EF91BF91AF919F918F917F916F91EA
:100610005F914F913F912F910F900FBE0F901F90C0
:1006200018951F920F920FB60F9211242F938F934C
:100630009F93EF93FF93E0913201F091330180811A
:10064000E0913801F091390182FD1BC090818091C9
:100650003B018F5F8F7320913C01821741F0E09145
:100660003B01F0E0EE5DFE4F958F80933B01FF91E3
:10067000EF919F918F912F910F900FBE0F901F9030
:1006800018958081F4CF1F920F920FB60F9211240C
:100690002F933F934F935F936F937F938F939F938A
:1006A000AF93BF93CF93DF93EF93FF9380911401A8
:1006B000C091E301D0E087FF24C010928500109222
:1006C0008400809114018F5F809314018091140144
:1006D000082E000C990B8C179D0724F480911401AF
:1006E0008C30C4F180918400909185000496803410
:1006F0009C4908F47AC0809184009091850004960A
:1007000076C080911401082E000C990B8C179D0760
:10071000C4F6E09114018E2FEE0F990BFC01EE0F41
:10072000FF1FE80FF91FE154FE4F808186FFC9CFFC
:10073000E09114018E2FEE0F990BFC01EE0FFF1FBD
:10074000E80FF91FE154FE4F808160E08F730E9433
:10075000EB01B7CF2091840030918500E091140126
:100760008E2FEE0F990BFC01EE0FFF1FE80FF91F04
:10077000E154FE4F81819281820F931F90938900F3
:1007800080938800E09114018E2FEE0F990BFC01ED
:10079000EE0FFF1FE80FF91FE154FE4F808186FF27
:1007A00011C0E09114018E2FEE0F990BFC01EE0F9A
:1007B000FF1FE80FF91FE154FE4F808161E08F7346
:1007C0000E94EB01FF91EF91DF91CF91BF91AF912B
:1007D0009F918F917F916F915F914F913F912F9159
:1007E0000F900FBE0F901F90189580E49CE9909396
:1007F0008900809388008FEF80931401E3CF1092DB
:1008000025011092240188EE93E0A0E0B0E08093EF
:10081000260190932701A0932801B093290185E038
:1008200091E0909323018093220185EC90E09093D6
:100830002F0180932E0184EC90E0909331018093FE
:10084000300180EC90E0909333018093320181EC91
:1008500090E0909335018093340182EC90E0909386
:1008600037018093360186EC90E0909339018093B4
:10087000380110923B0110923C0110923D01109200
:100880003E018091E3018C3098F491E0980F9093B1
:10089000E3018093E40190E0FC01EE0FFF1FE80FFD
:1008A000F91FE154FE4F88EB9BE09283818308950A
:1008B0008FEF8093E4010895789484B5826084BDBD
:1008C00084B5816084BD85B5826085BD85B5816054
:1008D00085BD80916E00816080936E0010928100D2
:1008E000809181008260809381008091810081608D
:1008F000809381008091800081608093800080914E
:10090000B10084608093B1008091B00081608093D9
:10091000B00080917A00846080937A0080917A00A0
:10092000826080937A0080917A00816080937A005F
:1009300080917A00806880937A001092C10061E013
:1009400083E00E94190260E084E00E94190260E0E6
:100950008EE00E94190261E087E00E94190261E0C6
:1009600086E00E94190261E085E00E94190261E0C0
:1009700084E00E94190260E08DE00E94190260E0AC
:100980008CE00E94190260E08BE00E94190261E095
:100990008AE00E94190261E089E00E941902E09158
:1009A0003201F091330182E08083E0912E01F091D9
:1009B0002F011082E0913001F09131018FEC8083A2
:1009C00010923A01E0913601F091370186E0808380
:1009D000E0913401F0913501808180618083E09164
:1009E0003401F0913501808188608083E091340189
:1009F000F0913501808180688083E0913401F0912D
:100A0000350180818F7D808300E010E0C1E082E2CB
:100A100091E00E94EA00181619064CF582E291E076
:100A20000E94C800833749F4C09300011092180156
:100A300010921701109216010AC0843659F41092D0
:100A400000011092180110921701C0931601109224
:100A500015010DC0893609F0ABC01092000110924B
:100A600018011092170110921601C09315018DE024
:100A70000E94C2018CE00E94C2018BE00E94C20170
:100A8000809118018823D1F06CE370E08AE00E9425
:100A90004A026CE370E089E00E944A0261E087E06C
:100AA0000E94EB0160E086E00E94EB0161E085E0DE
:100AB0000E94EB0160E084E00E94EB01809117014D
:100AC0008823D1F06CE370E08AE00E944A026CE374
:100AD00070E089E00E944A0260E087E00E94EB013A
:100AE00061E086E00E94EB0160E085E00E94EB019E
:100AF00061E084E00E94EB0180910001882381F095
:100B000060E087E00E94EB0160E086E00E94EB017C
:100B100060E085E00E94EB0160E084E00E94EB0170
:100B2000809116018823D1F064E670E08AE00E948B
:100B30004A0264E170E089E00E944A0261E087E0D5
:100B40000E94EB0160E086E00E94EB0160E085E03E
:100B50000E94EB0161E084E00E94EB0180911501AD
:100B60008823D1F064E170E08AE00E944A0264E6E2
:100B700070E089E00E944A0260E087E00E94EB0199
:100B800061E086E00E94EB0161E085E00E94EB01FC
:100B900060E084E00E94EB010115110509F437CFF4
:100BA0000E94F600882309F432CF0E9400002FCF64
:100BB000813629F410920001C093180139CF823791
:100BC00009F055CF1092000110921801C09317013F
:100BD00031CFEE0FFF1F0590F491E02D0994F894AA
:100BE000FFCF01000000002C018C00B9007901EA60
:060BF00000C800DC00005B
:107E0000112484B714BE81FFF0D085E080938100F7
:107E100082E08093C00088E18093C10086E0809377
:107E2000C20080E18093C4008EE0C9D0259A86E02C
:107E300020E33CEF91E0309385002093840096BBD3
:107E4000B09BFECF1D9AA8958150A9F7CC24DD24C4
:107E500088248394B5E0AB2EA1E19A2EF3E0BF2EE7
:107E6000A2D0813461F49FD0082FAFD0023811F036
:107E7000013811F484E001C083E08DD089C08234E0
:107E800011F484E103C0853419F485E0A6D080C0E4
:107E9000853579F488D0E82EFF2485D0082F10E0AE
:107EA000102F00270E291F29000F111F8ED06801E7
:107EB0006FC0863521F484E090D080E0DECF843638
:107EC00009F040C070D06FD0082F6DD080E0C81688
:107ED00080E7D80618F4F601B7BEE895C0E0D1E017
:107EE00062D089930C17E1F7F0E0CF16F0E7DF06D8
:107EF00018F0F601B7BEE89568D007B600FCFDCFD4
:107F0000A601A0E0B1E02C9130E011968C91119780
:107F100090E0982F8827822B932B1296FA010C0160
:107F200087BEE89511244E5F5F4FF1E0A038BF0790
:107F300051F7F601A7BEE89507B600FCFDCF97BE46
:107F4000E89526C08437B1F42ED02DD0F82E2BD052
:107F50003CD0F601EF2C8F010F5F1F4F84911BD097
:107F6000EA94F801C1F70894C11CD11CFA94CF0C13
:107F7000D11C0EC0853739F428D08EE10CD085E9AC
:107F80000AD08FE07ACF813511F488E018D01DD067
:107F900080E101D065CF982F8091C00085FFFCCF94
:107FA0009093C60008958091C00087FFFCCF809118
:107FB000C00084FD01C0A8958091C6000895E0E648
:107FC000F0E098E1908380830895EDDF803219F02E
:107FD00088E0F5DFFFCF84E1DECF1F93182FE3DFCA
:107FE0001150E9F7F2DF1F91089580E0E8DFEE27F6
:047FF000FF270994CA
:027FFE00040479
:00000001FF
